:100000000C9446000C94A5000C94C5000C940501BA
:100010000C9416010C9465000C9465000C94270157
:100020000C9465000C9465000C9467000C946500BA
:100030000C9465000C9465000C9465000C946500AC
:100040000C94D0060C9465000C9465000C9465002B
:100050000C9465000C9465000C9465000C9465008C
:100060000C9465000C9465000C9465000C9465007C
:100070000C9465000C9471000C9465000C94650060
:100080000C9465000C9465000C94650011241FBE4F
:10009000CFEFD0E1DEBFCDBF11E0A0E0B1E0E6EAF6
:1000A000FFE000E00BBF02C007900D92A431B10742
:1000B000D9F721E0A4E1B1E001C01D92A136B20759
:1000C000E1F70E9406070C94D1070C9400001F92E0
:1000D0000F920FB60F9211240F900FBE0F901F902A
:1000E00018951F920F920FB60F9211248F939F9322
:1000F000F8948FEF90EB9093890080938800809123
:1001000043018F5F809343018336B8F080914201B1
:100110008B3340F0809141018F5F809341011092B9
:10012000420103C08F5F80934201809141018A3078
:1001300010F0109241011092430178949F918F9199
:100140000F900FBE0F901F9018951F920F920FB631
:100150000F9211248F93F894809139018F5F85302D
:1001600018F48093390102C01092390110923801BD
:1001700010923401109233011092320178948F91D1
:100180000F900FBE0F901F9018951F920F920FB6F1
:100190000F9211246F937F938F939F93F89481E034
:1001A00090913801911180E080933801809139015C
:1001B000823039F41092310180915C0180933001DA
:1001C00017C08330A9F480912601811105C081E018
:1001D000809326011092150181E080931401109202
:1001E000310180913D016AE00E94B1079093300196
:1001F00081E08093350178949F918F917F916F91E9
:100200000F900FBE0F901F9018951F920F920FB670
:100210000F9211248F93F89481E0809334017894A5
:100220008F910F900FBE0F901F9018951F920F92F5
:100230000FB60F9211248F93F89481E080933301CD
:1002400078948F910F900FBE0F901F9018951F926A
:100250000F920FB60F9211248F93F89481E0809340
:10026000320178948F910F900FBE0F901F901895C8
:10027000A42FB0E0A65FBE4FE62FF0E0E050FF4FA6
:100280009C912081922B813031F018F0823039F42A
:1002900005C095BB08959093620008959BBB089597
:1002A000809143012AE0622F0E94B107A92FB0E09C
:1002B000A65FBE4FE82FF0E0E050FF4F8C91908199
:1002C000892B85BB8FE99FE00197F1F700C0000003
:1002D000809142010E94B107A92FB0E0A65FBE4FF6
:1002E000E82FF0E0E050FF4F8C919081892B8093B4
:1002F00062008FE99FE00197F1F700C00000809154
:1003000041010E94B107A92FB0E0A65FBE4FE82FC0
:10031000F0E0E050FF4F8C919081892B8BBB8FE9EF
:100320009FE00197F1F700C000000895CF93DF939D
:100330004FEF57E0CCE62AE0DBE49AC0409365003B
:100340003FEF60E792E0315060409040E1F700C03D
:100350000000109265003FEF60E792E0315060408E
:100360009040E1F700C000009091450191110EC04E
:10037000809344011092400110923F0110923E017F
:1003800053BFC2BF109246018093450187B7816079
:1003900087BF80913F01622F0E94B107A92FB0E073
:1003A000A65FBE4FE82FF0E0E050FF4F8C919081A8
:1003B000892B85BB8FE99FE00197F1F700C0000012
:1003C00080913E010E94B107A92FB0E0A65FBE4F09
:1003D000E82FF0E0E050FF4F8C919081892B8093C3
:1003E00062008FE99FE00197F1F700C00000A09143
:1003F0004601B0E0A65FBE4FE0913901F0E0E05069
:10040000FF4F8C919081892B8BBB8FE99FE00197E7
:10041000F1F700C0000080913401813001F5309186
:100420004601343010F0D9BF18C080913F0194E0EC
:10043000399FF0011124E95BFE4F622F0E94B10742
:100440009083818380913E010E94B10792838383D0
:10045000333049F33F5F309346011092340180916D
:100460003901813029F080914401813079F406C04E
:1004700080913801813009F461CFF5CF8FE489BFD5
:10048000109245011092460110924401809133016F
:10049000813061F4809146018F5F843018F480933D
:1004A000460102C01092460110923301E0914601CC
:1004B00034E0E39FF0011124E95BFE4FA081B0E03E
:1004C000A65FBE4FE181F0E0E050FF4F8C9190813C
:1004D000892B85BB8FE99FE00197F1F700C00000F1
:1004E000E091460194E0E99FF0011124E95BFE4FA1
:1004F000A281B0E0A65FBE4FE381F0E0E050FF4F85
:100500008C919081892B809362008FE99FE0019705
:10051000F1F700C00000A0914601B0E0A65FBE4F19
:10052000E0913901F0E0E050FF4F8C919081892BF0
:100530008BBB80913201813031F59091290180E0AF
:100540000CC094E0899FF0011124E95BFE4F1082FA
:100550001182128213828F5F94E0843090F3909323
:10056000290180932A0110924601109240011092B5
:100570003F0110923E011092450187E489BF10921D
:10058000320110923501DF91CF910895A0915C0165
:10059000B0E0A65FBE4FE0915D01F0E0E050FF4F9C
:1005A0008C919081892B85BBA0915E01B0E0A65F04
:1005B000BE4FE0915F01F0E0E050FF4F8C919081E1
:1005C000892B80933A0180936200A0916001B0E092
:1005D000A65FBE4FE0913901F0E0E050FF4F8C91F3
:1005E0009081892B8BBB109231012FEF75C0209326
:1005F00065003FEF80E792E0315080409040E1F7A6
:1006000000C00000109265003FEF80E792E031509B
:1006100080409040E1F700C00000809134018130BB
:1006200071F4809131018F5F853018F4809331012E
:1006300002C0109231011092340110923001809169
:100640003301813061F4809130018F5F8A3018F47A
:100650008093300102C01092300110923301E0917A
:100660003101F0E0E45AFE4F809130018083A09187
:100670005C01B0E0A65FBE4FE0915D01F0E0E050AC
:10068000FF4F8C919081892B85BBA0915E01B0E0DA
:10069000A65FBE4FE0915F01F0E0E050FF4F8C910C
:1006A0009081892B80933A0180936200A091600130
:1006B000B0E0A65FBE4F90913901E92FF0E0E05025
:1006C000FF4F8C913081832B8BBB923029F080912E
:1006D0003201813059F406C080913801813009F42B
:1006E00086CFF5CF809337011092320108950F9392
:1006F0001F93CF93DF93CAE024E630E04FEF50E042
:10070000D1E017E00CE632C180913401813059F517
:10071000809131018F5F843018F48093310102C0E1
:100720001092310180913101813049F028F08230FE
:1007300049F08330B1F40EC080913D0105C0809135
:100740003D010AC080913C016C2F0E94B10790933B
:10075000300107C080913C016C2F0E94B10780934B
:1007600030011092340180913301813041F5809144
:1007700030018F5F8A3018F48093300102C01092EC
:100780003001E0913101F0E0E95AFE4F80913001F3
:10079000808390915801809157016AE0969F800D67
:1007A000112480933D0190915A01809159016AE092
:1007B000969F800D112480933C011092330180910B
:1007C0003D016C2F0E94B107A92FB0E0A65FBE4F7C
:1007D000E82FF0E0E050FF4F8C919081892B85BB92
:1007E0008FE99FE00197F1F700C0000080913C0184
:1007F0000E94B107A92FB0E0A65FBE4FE82FF0E03E
:10080000E050FF4F8C919081892B809362008FE99B
:100810009FE00197F1F700C00000E0913901F0E09E
:10082000E050FF4F808190910A01892B8BBB8FE9AB
:100830009FE00197F1F700C0000080913201813004
:1008400021F41092260110923201809139018330F7
:1008500029F080913C01882331F032C0809126013B
:10086000811152CFF6CF80913D01882309F128C034
:100870003BBD2ABD9FEF69EF80E091506040804012
:10088000E1F700C000005BBD4ABD9FEF69EF80E06B
:10089000915060408040E1F700C00000809133013A
:1008A000813031F4809315011092140110923301BC
:1008B000809114018130E1F210923C0110923D01CF
:1008C00080914501811108C0D093440110923B01F1
:1008D00013BF02BFD093450187B7816087BF809166
:1008E0003D016C2F0E94B107A92FB0E0A65FBE4F5B
:1008F000E82FF0E0E050FF4F8C919081892B85BB71
:100900008FE99FE00197F1F700C0000080913C0162
:100910000E94B107A92FB0E0A65FBE4FE82FF0E01C
:10092000E050FF4F8C919081892B809362008FE97A
:100930009FE00197F1F700C00000E0913901F0E07D
:10094000E050FF4F808190910B01892B8BBB8FE989
:100950009FE00197F1F700C00000809139018330DA
:1009600029F080914401813059F406C0809138010A
:10097000813009F473CFF5CF1092450110924401F4
:1009800080913D012AE0622F0E94B107A92FB0E0BB
:10099000A65FBE4FE82FF0E0E050FF4F8C919081B2
:1009A000892B85BB8FE99FE00197F1F700C000001C
:1009B00080913C010E94B107A92FB0E0A65FBE4F15
:1009C000E82FF0E0E050FF4F8C919081892B8093CD
:1009D00062008FE99FE00197F1F700C00000E0910D
:1009E0003901F0E0E050FF4F808190910A01892B9E
:1009F0008BBB8FE99FE00197F1F700C00000DF910A
:100A0000CF911F910F9108955FEF4AE0DFC050939F
:100A100065002FEF30E792E0215030409040E1F741
:100A200000C00000109265002FEF30E792E02150E7
:100A300030409040E1F700C00000909145019111D5
:100A40000CC01092310190911E01909330011092D0
:100A50001D0110921C018093450180913401813069
:100A6000B1F4809131018F5F843018F480933101AB
:100A700002C01092310110923401E0913101F0E096
:100A8000EE0FFF1FE25EFE4F808180933001809168
:100A900033018130E9F5809130018F5F8A3018F49D
:100AA0008093300102C010923001E0913101F0E0FA
:100AB000EE0FFF1FE25EFE4F8091300180831182B6
:100AC0002091200130912101429FC001439F900D50
:100AD000112420911E0130911F01820F931F9093CA
:100AE0001701809316012091240130912501429F26
:100AF000C001439F900D11242091220130912301C8
:100B0000820F931F90931901809318011092330163
:100B100080913201813099F480911C0190911D01E6
:100B200001968430910528F490931D0180931C0157
:100B300004C010921D0110921C0110923201A0916C
:100B40001E01B0911F01BB27A65FBE4FE09120019F
:100B5000F0912101FF27E050FF4F8C919081892B6C
:100B600085BB8FE99FE00197F1F700C00000A091DD
:100B70002201B0912301BB27A65FBE4FE091240163
:100B8000F0912501FF27E050FF4F8C919081892B38
:100B9000809362008FE99FE00197F1F700C00000A9
:100BA000E0911C01F0911D01FF27E65FFE4FA0912F
:100BB0003901B0E0A050BF4F80819C91892B8BBB45
:100BC0008FE99FE00197F1F700C0000080913801A4
:100BD000813009F41CCF80913201813009F09FC02F
:100BE00080911C0190911D018130910591F030F0B0
:100BF00082309105E9F00397C9F52AC0809116016A
:100C0000909117012091180130911901820F931FC3
:100C10000AC080911801909119012091160130911C
:100C20001701821B930B90931B0180931A011EC026
:100C3000409116015091170120911801309119012E
:100C4000429FC001439F900D529F900D1124EBCF06
:100C5000809118019091190160911601709117010E
:100C60000E94BD0770931B0160931A011092450109
:100C700084E090E090931D0180931C0180911A0103
:100C800090911B0164E670E00E94BD0780932A01E9
:100C9000609329012AE0622F0E94B107A92FB0E0DA
:100CA000A65FBE4FE82FF0E0E050FF4F8C9190819F
:100CB000892B85BB8FE99FE00197F1F700C0000009
:100CC000809129010E94B107A92FB0E0A65FBE4F15
:100CD000E82FF0E0E050FF4F8C919081892B8093BA
:100CE00062008FE99FE00197F1F700C00000E091FA
:100CF0001C01F0911D01FF27E65FFE4FA091390115
:100D0000B0E0A050BF4F80819C91892B8BBB8FE9B5
:100D10009FE00197F1F700C00000109232010895A2
:100D20000895809139018130E1F48091400183364A
:100D3000B0F180913F018B3340F080913E018F5F95
:100D400080933E0110923F0103C08F5F80933F016B
:100D500080913E018C3310F010923E0110924001C0
:100D600008958330E1F480912601811118C08091AB
:100D70001501811114C080913B01833680F0809170
:100D80003D01811107C080913C01815080933C015D
:100D90008BE301C0815080933D0110923B01089587
:100DA0001F920F920FB60F9211240BB60F922F9332
:100DB0003F934F935F936F937F938F939F93AF93E3
:100DC000BF93EF93FF93F8948CE682BF80913B0131
:100DD0008F5F80933B01809140018F5F8093400142
:100DE0000E9491067894FF91EF91BF91AF919F91EE
:100DF0008F917F916F915F914F913F912F910F90C4
:100E00000BBE0F900FBE0F901F9018958FEF8ABBEF
:100E10008093610084BB87BB8093640012B811BAD1
:100E20001092650013B888BB8AEA80936A0080E25A
:100E30008ABF8FE489BF18BE10928B0082E0809336
:100E40008A0010928C0080E29EE490938900809347
:100E5000880081EC8FBD83E08EBD10927A001DBCAE
:100E60001CBC17BE84E080937D0091E096BF809308
:100E70007C0080910A0190910001892B85BB8093B1
:100E800062008BBB7894CFEFD0E02AE0F22E04E62C
:100E900010E0DBBDCABD80913901823071F028F4C9
:100EA0008823A1F0813091F405C0833049F084306B
:100EB00069F409C00E9496010BC00E94C60208C0D6
:100EC0000E94770305C00E94040502C00E945001E1
:100ED000809137018130E9F6809143016F2D0E94A6
:100EE000B10720915C012913D4CF90915D01981333
:100EF000D0CF809142010E94B10720915E01291359
:100F0000C8CF90915F019813C4CF909160018091F8
:100F100041019813BECF109235011CC01BBD0ABD04
:100F20002FEF89EF90E0215080409040E1F700C022
:100F30000000DBBDCABD2FEF89EF90E0215080405B
:100F40009040E1F700C0000080913501813011F43C
:100F50001092370180913701813001F310923501F1
:100F600098CF991B79E004C0991F961708F0961B3B
:100F7000881F7A95C9F780950895AA1BBB1B51E17C
:100F800007C0AA1FBB1FA617B70710F0A61BB70BF9
:100F9000881F991F5A95A9F780959095BC01CD019E
:060FA0000895F894FFCF54
:100FA600001020304050607080900001020304055C
:040FB6000607080919
:00000001FF
